S01600006A6F79737469636B4472697665722E7372656332
S113000028C042C041C040C03FC03EC042C13CC005
S1130010E7C03AC039C038C037C036C035C034C074
S113002033C032C031C06BC06DC06FC071C073C00B
S113003075C077C079C09DC09FC0A1C0A3C0A5C032
S1130040A7C0A9C0ABC06364696E6F70737578583C
S11300505B0011241FBECFE5D4E0DEBFCDBF11E0AD
S1130060A0E6B0E0E6E8F5E102C005900D92A23406
S1130070B107D9F711E0A2E4B1E001C01D92A635A1
S1130080B107E1F72BD17DCABBCF5D9BFECF8CB905
S113009008955F9BFECF8CB190E008952BB12BB9EE
S11300A090BD89B986E080BD88E18AB985E490E095
S11300B069E470E028D4089582E090E0F5D2E82F56
S11300C0F92F88E0808311828E2F08951F93CF9398
S11300D0DF93182FD62FC42FEFDF90934B0180931B
S11300E04A0186E080934901812F90E0019788308E
S11300F09105D8F48D5E9F4F8F939F9308958EEF53
S113010084BB13C08CEF84BB10C088EF84BB0DC0CC
S113011080EF84BB0AC080EE84BB07C080EC84BB44
S113012004C080E884BB01C014BA8091490187707F
S113013080934901D7B9C82BC6B9369ADF91CF91BC
S11301401F91089598B324E331E0280F311DF9017C
S11301508081982798BB089588B318BA089590E0D1
S1130160019788309105E0F4855E9F4F8F939F93AC
S1130170089581E087BB14C083E087BB11C087E08A
S113018087BB0EC08FE087BB0BC08FE187BB08C065
S11301908FE387BB05C08FE787BB02C08FEF87BBA8
S11301A088B318BA08951092460186DFE2E4F1E0BC
S11301B09183808383EC99E09683858342E0428334
S11301C02FEF3FEF3DBD2CBD20EF3FEF3BBD2ABDE0
S11301D097BD86BD84E189BF4FBD8AE18EBD089578
S11301E01F920F920FB60F9211242F933F934F93A8
S11301F05F936F937F938F939F93AF93BF93EF938B
S1130200FF93AADF8091460180934501E0914A0162
S1130210F0914B0181818093460186B164B175B13F
S113022080E090E044D12CEE31E548E75FE3CDD1A6
S11302309B01AC0160E070E88BEB94E4A7D00BD198
S1130240DC01CB019BBD8ABDE0914A01F0914B01D9
S113025081818F5F60811CD29183E0914A01F0918A
S11302604B01818197B1907F97B997B1892B87B959
S1130270FF91EF91BF91AF919F918F917F916F917A
S11302805F914F913F912F910F900FBE0F901F9050
S113029018951F920F920FB60F9211242F933F932C
S11302A04F935F936F937F938F939F93AF93BF937A
S11302B0EF93FF938091450145DFFF91EF91BF914B
S11302C0AF919F918F917F916F915F914F913F91EA
S11302D02F910F900FBE0F901F901895CF93DF931F
S11302E00F92CDB7DEB783E390E0D8DE0F2EF0E6B1
S11302F0EF2EF0E0FF2EF02DC70160D386E990E0E9
S11303005DD38AEB90E05AD385ED90E057D300D0CB
S113031000D007E011E0ADB7BEB712961C930E9360
S11303201197CE01019614969C938E93139774D3D0
S1130330EDB7FEB73196ADB7BEB712961C930E93C8
S1130340119789818283138227D30F900F900F9086
S11303500F90C70133D38981982F9150983020F0A2
S11303608AE091E02BD307C0FADE898160E440EA99
S1130370ADDE19DF789485B78F7885BF85B780683F
S113038085BF889585B78F7785BFF5CF5058BB2734
S1130390AA270ED0E0C0D1D030F0D6D020F031F46E
S11303A09F3F11F41EF4C6C00EF4E095E7FBBCC0F9
S11303B0E92FE2D080F3BA17620773078407950721
S11303C018F071F49EF5FAC00EF4E0950B2EBA2FD6
S11303D0A02D0B01B90190010C01CA01A001112447
S11303E0FF27591B99F0593F50F4503E68F11A16F3
S11303F0F040A22F232F342F4427585FF3CF469584
S113040037952795A795F0405395C9F77EF41F16A5
S1130410BA0B620B730B840BBAF09150A1F0FF0F6F
S1130420BB1F661F771F881FC2F70EC0BA0F621F5B
S1130430731F841F48F4879577956795B795F7954B
S11304409E3F08F0B3CF9395880F08F09927EE0FDD
S113045097958795089598D088F09F5790F0B92F75
S11304609927B751A0F0D1F0660F771F881F991F05
S11304701AF0BA95C9F712C0B13081F09FD0B1E03B
S113048008959CC0672F782F8827B85F39F0B93F4B
S1130490CCF3869577956795B395D9F73EF4909507
S11304A08095709561957F4F8F4F9F4F0895E89485
S11304B009C097FB3EF490958095709561957F4FA8
S11304C08F4F9F4F9923A9F0F92F96E9BB27939556
S11304D0F695879577956795B795F111F8CFFAF466
S11304E0BB0F11F460FF1BC06F5F7F4F8F4F9F4F97
S11304F016C0882311F096E911C0772321F09EE8F5
S1130500872F762F05C0662371F096E8862F70E05A
S113051060E02AF09A95660F771F881FDAF7880F34
S11305209695879597F9089597F99F6780E870E005
S113053060E008959FEF80EC089500240A94161655
S1130540170618060906089500240A9412161306BD
S1130550140605060895092E0394000C11F488234B
S113056052F0BB0F40F4BF2B11F460FF04C06F5F67
S11305707F4F8F4F9F4F089557FD9058440F551F3D
S113058059F05F3F71F04795880F97FB991F61F011
S11305909F3F79F087950895121613061406551F88
S11305A0F2CF4695F1DF08C0161617061806991FF4
S11305B0F1CF86957105610508940895E894BB27E9
S11305C066277727CB0197F908950BD0C4CFB5DF01
S11305D028F0BADF18F0952309F0A6CFABCF112489
S11305E0EECFCADFA0F3959FD1F3950F50E0551FCE
S11305F0629FF001729FBB27F00DB11D639FAA2774
S1130600F00DB11DAA1F649F6627B00DA11D661FC2
S1130610829F2227B00DA11D621F739FB00DA11DE3
S1130620621F839FA00D611D221F749F3327A00D9D
S1130630611D231F849F600D211D822F762F6A2F39
S113064011249F5750408AF0E1F088234AF0EE0FBE
S1130650FF1FBB1F661F771F881F91505040A9F7CB
S11306609E3F510570F060CFAACF5F3FECF3983EF8
S1130670DCF3869577956795B795F795E7959F5F32
S1130680C1F7FE2B880F911D9695879597F90895CC
S1130690991B79E004C0991F961708F0961B881FD0
S11306A07A95C9F780950895CF93DF93AC01823092
S11306B0910510F442E050E0E0914E01F0914F01B9
S11306C020E030E0A0E0B0E024C080819181841774
S11306D09507D0F08417950771F482819381109760
S11306E029F013969C938E9312972CC090934F01EC
S11306F080934E0127C02115310519F08217930705
S113070018F49C01BD01EF0192818381DF01E92F7F
S1130710F82F3097D1F621153105F9F0C901841B62
S1130720950B8430910580F48A819B816115710554
S113073021F0FB019383828304C090934F01809343
S11307404E01FE01329642C0FE01E80FF91F4193AB
S1130750519302979983888339C080914C01909179
S11307604D01009741F480913E0190913F01909397
S11307704D0180934C0120913C0130913D012115A4
S1130780310541F42DB73EB780914001909141016C
S1130790281B390BE0914C01F0914D01E217F3074E
S11307A098F42E1B3F0B2417350770F0CA010296EC
S11307B02817390748F08E0F9F1F90934D0180939F
S11307C04C014193519302C0E0E0F0E0CF01DF918E
S11307D0CF9108950F931F93CF93DF939C010097BC
S11307E009F48CC0DC01129713961C921E92129786
S11307F060914E0170914F016115710589F48D91DD
S11308009C911197820F931F20914C0130914D01BF
S11308102817390769F5B0934D01A0934C016EC0B8
S1130820FB0140E050E001C0FC01EA17FB0730F493
S113083082819381AF010097B9F71FC0E901229724
S1130840FB83EA8308811981C901800F911F8E17E8
S11308509F0759F480819181800F911F029699839B
S11308608883828193819B838A834115510529F46E
S1130870B0934F01A0934E0141C0FA01B383A28308
S1130880C191D191EC0FFD1FAE17BF0781F4F9019F
S1130890929182918C0F9D1F0296DA0111969C937E
S11308A08E938281938113969C938E931297E0E0AA
S11308B0F0E002C0FB01BC01DB0112968D919C911A
S11308C013970097B9F7CB0102962D913C9111979C
S11308D0820F931F20914C0130914D012817390745
S11308E069F4309729F410924F0110924E0102C01E
S11308F01382128270934D0160934C01DF91CF916A
S11309001F910F9108950F931F93CF93DF938C0141
S1130910EB01009711F42097B9F181E090E06EE0CB
S113092070E0C2D4FC01009789F180E883832097AA
S113093071F0D387C28781E88383809150019091BD
S11309405101009721F4F0935101E09350010115F6
S11309501105E1F011870087838182608383809190
S1130960520190915301009789F4F0935301E0935D
S113097052018091540190915501009739F4F093FC
S11309805501E093540102C0E0E0F0E0CF01DF91B3
S1130990CF911F910F910895A0E0B0E0E1EDF4E054
S11309A0C9C5FE0135966191719180915201909172
S11309B05301AF0143D02096E2E0D8C50F931F93B3
S11309C0CF93DF938C01E0915201F0915301838125
S11309D081FF1AC0C0E0D0E005C00995009711F06E
S11309E0CFEFDFEFF80181918F0160915201709197
S11309F05301DB011896ED91FC911997882369F74F
S1130A008AE00995009711F0CFEFDFEFCE01DF9177
S1130A10CF911F910F910895A0E0B0E0E1E1F5E0DE
S1130A2089C5FE0135966191719180915001909133
S1130A305101AF0135D32096E2E098C5ADE0B0E0B6
S1130A40E3E2F5E067C53C017D876C875A01FC0150
S1130A5017821682838181FFBBC12E010894411C39
S1130A60511CF3019381EC85FD8593FD859193FFE2
S1130A708191FD87EC87882309F4A6C1853241F46E
S1130A8093FD859193FF8191FD87EC87853221F455
S1130A9090E0B30195D4E5CFFF24EE2410E01032AA
S1130AA0B0F48B3269F08C3228F4803251F0833206
S1130AB071F40BC08D3239F0803349F411602CC0CD
S1130AC01260146029C0186027C0106125C017FD8A
S1130AD02EC0282F20532A3098F416FF08C08F2DDB
S1130AE0880FF82EFF0CFF0CF80EF20E15C08E2D99
S1130AF0880FE82EEE0CEE0CE80EE20E10620CC02D
S1130B008E3221F416FD60C1106406C08C3611F4D7
S1130B10106802C0883659F4EC85FD8593FD8591F3
S1130B2093FF8191FD87EC87882309F0B8CF982F34
S1130B309554933018F09052933038F424E030E018
S1130B40A20EB31E3FE339830FC0833631F08337DF
S1130B5081F0833509F056C021C0F5018081898375
S1130B6022E030E0A20EB31E21E0C22ED12C4201BD
S1130B7013C092E0292E312C2A0C3B1CF5018080F5
S1130B80918016FF03C06F2D70E002C06FEF7FEFFE
S1130B90C401CBD36C0151011F7714C082E0282E0D
S1130BA0312C2A0C3B1CF5018080918016FF03C078
S1130BB06F2D70E002C06FEF7FEFC401A4D36C010E
S1130BC01068510113FD1AC005C080E290E0B30122
S1130BD0F7D3EA948E2D90E0C816D906B0F30EC070
S1130BE0F40117FD859117FF81914F0190E0B30146
S1130BF0E7D3E110EA940894C108D108C114D104E0
S1130C0079F7DFC0843611F0893649F5F50117FF0D
S1130C1007C080819181A281B38124E030E008C0C3
S1130C2080819181AA2797FDA095BA2F22E030E018
S1130C30A20EB31E012F0F76B7FF08C0B095A09582
S1130C40909581959F4FAF4FBF4F0068BC01CD0178
S1130C50A2012AE030E0FDD3D82ED4183EC0853757
S1130C6021F41F7E2AE030E020C0197F8F36A9F0DE
S1130C70803720F4883509F0A7C00BC0803721F0F5
S1130C80883709F0A1C001C0106114FF09C01460C5
S1130C9007C014FF08C0166006C028E030E005C095
S1130CA020E130E002C020E132E0F50117FF07C087
S1130CB0608171818281938144E050E006C060814B
S1130CC0718180E090E042E050E0A40EB51EA201E4
S1130CD0C0D3D82ED418012F0F7706FF09C00E7F7A
S1130CE0DF1430F404FF06C002FD04C00F7E02C00E
S1130CF01D2D01C01F2D802F90E004FF0CC0FE01AC
S1130D00ED0DF11D2081203311F4097E09C002FF8D
S1130D1006C01E5F05C086789070009709F01F5FBB
S1130D20802E992403FD11C000FF0CC0FD2C1E155C
S1130D3048F4FE0CF11A1E2D05C080E290E0B301C8
S1130D403FD31F5F1E15C8F304C01E1510F4E11A2B
S1130D5001C0EE2484FE0EC080E390E0B30130D3E2
S1130D6082FE1DC081FE03C088E590E010C088E7C4
S1130D7090E00DC0C40186789070009781F081FCEA
S1130D8002C080E201C08BE207FD8DE290E0B30176
S1130D9017D305C080E390E0B30112D3FA94DF14B3
S1130DA0C8F3DA94F201ED0DF11D808190E0B301F6
S1130DB007D3DD20B1F705C080E290E0B30100D392
S1130DC0EA94EE20C9F74DCEF3018681978102C0E3
S1130DD08FEF9FEF2D96E2E1B9C320FD09C0FC011E
S1130DE023FD05C022FF02C07383628351834083C5
S1130DF00895CF92DF92EF92FF926B017C0144FD44
S1130E0010C046FD10C0D601F701AA0FBB1FEE1F8C
S1130E10FF1F1094D1F7CA0EDB1EEE1EFF1E81E0E9
S1130E2003C083E001C084E0CC0CDD1CEE1CFF1C7D
S1130E308150D1F7C20ED11CE11CF11CB601C701CF
S1130E40FF90EF90DF90CF9008950F931F93CF936F
S1130E50DF938C01C80174D2EC0197FD06C040D227
S1130E600097C1F7CE01B801D7D2CE01DF91CF915F
S1130E701F910F910895A0E0B0E0E0E4F7E052C3C1
S1130E808C01D62F5A01C22F5BD28B3219F08D32CE
S1130E9041F4C068D15009F459C0C80151D297FD3A
S1130EA055C0CD7F2C2F2073B9F48033A9F4D150D1
S1130EB0C9F1C80145D297FD35C0C260883711F029
S1130EC0883541F4C064D15069F1C80139D297FF23
S1130ED003C028C0C6FFC061CC24DD247601282FBE
S1130EE02053283078F0C4FD09C02A3058F0C6FFDA
S1130EF005C02F7D322F3151363018F0B8018CD215
S1130F000EC02750C701B6014C2F73DF6B017C0163
S1130F10C260D15051F0C80113D297FFE0CFC1FD98
S1130F2004C014C0CC24DD247601C7FF08C0F094AB
S1130F30E094D094C094C11CD11CE11CF11CC501E7
S1130F40B701A6012C2F49DF81E001C080E0CDB7B5
S1130F50DEB7EAE003C3A0E2B0E0E0EBF7E0DCC216
S1130F605C01062F7A016901FE01319680E2DF01FE
S1130F701D928A95E9F7D50113961C91139760E0A9
S1130F8070E020E040E030E04F0181E0682E712CF9
S1130F90F60113FD559113FF51916F01552309F487
S1130FA079C05E3519F46115710549F1832F90E01C
S1130FB0861797073CF45D3551F15D3219F44423EB
S1130FC001F103C0442309F4252F852F86958695C6
S1130FD08695F401E80FF11D852F8770230102C067
S1130FE0440C551C8A95E2F780818429808352172A
S1130FF051F0521710F45F5FE8CF5150E6CF31E063
S113100003C041E001C040E06F5F7F4FC1CF442384
S113101019F08E8180628E83332351F0FE01319664
S1131020CE018196208120952193E817F907D1F705
S113103011E001C010E0C50183D19C0197FD22C0DD
S1131040869586958695E1E0F0E0EC0FFD1FE80FAC
S1131050F11D408150E0C9018770907002C0559520
S113106047958A95E2F740FD04C0C901B501D4D182
S113107009C0E114F10419F0D7012D937D01015049
S1131080C9F602C0112331F4E114F10429F0F70187
S1131090108202C0CC24DD24C601A096E0E158C22F
S11310A0A1E0B0E0E5E5F8E038C27C015B013A017B
S11310B0FC01178216829924E1C0812F90E010D19F
S11310C0009719F0C701C1DED9C0153241F4F5010A
S11310D003FD359103FF31915F01353251F4C701AE
S11310E02FD197FDD7C0181709F4C8C0B70194D100
S11310F0D3C03A3241F403FD359103FF31915F01CE
S11311005524539401C0552488240FC0F2E05F2A6B
S1131110682D70E080E090E040E26BDE862EF50101
S113112003FD359103FF31915F01232F20532A30B2
S113113068F351FE03C0882019F4AEC088248A9451
S1131140383619F03C3699F40AC0F50103FD35919F
S113115003FF31915F01383651F4F8E05F2A44E02F
S1131160542AF50103FD359103FF31915F013323C7
S113117009F492C086E490E0632F70E03983B8D01C
S11311803981009709F488C0852D50FC08C0F3010B
S11311900081118142E050E0640E751E02C000E03F
S11311A010E03E3649F4F7014681578160E070E073
S11311B0C801252D12DE62C0333689F481FD02C0D8
S11311C088248394C701BCD097FD64C00115110520
S11311D019F0F80181938F018A94A1F74DC0C701DA
S11311E03B3549F4682DA8019501B5DE5C010097F3
S11311F009F042C03CC0398328DE398197FD4AC0DA
S11312003F3649F1303728F4343611F1393631F5A7
S113121027C0333719F0353709F51AC0C70190D004
S11312206C0197FD0FC05CD0009721F0C601B70197
S1131230F3D008C00115110519F0F801C1928F010E
S11312408A9461F701151105B9F0F801108214C0F0
S1131250F0E25F2A05C040E1542A02C050E4552A56
S1131260C701682DA801252D06DE882329F4F7017E
S11312708381807379F410C050FE9394F701038145
S1131280F50103FD159103FF11915F01112309F08D
S113129014CF02C0992019F0892D90E002C08FEF7D
S11312A09FEF2196EFE055C10F931F93CF93DF93E8
S11312B0689F8001699F100D789F100D1124C8014B
S11312C0F3D9C82FD92F209729F08C2F60E070E034
S11312D0A80124D0CE01DF91CF911F910F910895E1
S11312E0911115C1803219F089508550D0F70895B5
S11312F0FC010590061621F00020D9F7C0010895DD
S11313003197CF010895FC010590615070400110A0
S1131310D8F7809590958E0F9F1F0895DC0101C02A
S11313206D9341505040E0F70895FC0161507040C6
S113133001900110D8F7809590958E0F9F1F089506
S1131340CF93DF93EC012B8120FF35C026FF09C02A
S11313502F7B2B838E819F8101969F838E838A812D
S113136028C022FF0FC0E881F9818081992787FD79
S11313709095009719F420622B831DC03196F98350
S1131380E88311C0EA85FB85CE01099597FF0BC060
S11313902B813FEF8F3F930711F480E101C080E27E
S11313A0822B8B8308C02E813F812F5F3F4F3F8369
S11313B02E8390E002C08FEF9FEFDF91CF910895CD
S11313C00F931F93CF93DF938C01EB018B8181FFEC
S11313D01BC082FF0DC02E813F818C819D81281707
S11313E0390764F4E881F9810193F983E88306C03D
S11313F0E885F985802F0995009731F48E819F81C6
S113140001969F838E8302C00FEF1FEFC801DF9107
S1131410CF911F910F910895FB01238120FF13C0E9
S113142026FD11C03FEF8F3F930781F08283922FF7
S113143090649F7D93832681378121503040378388
S1131440268390E008958FEF9FEF08958FEF9FEF2D
S11314500895FA01AA27283051F1203181F1E89446
S11314606F936E7F6E5F7F4F8F4F9F4FAF4FB1E093
S11314703ED0B4E03CD0670F781F891F9A1FA11D8E
S1131480680F791F8A1F911DA11D6A0F711D811D8F
S1131490911DA11D20D009F468943F912AE0269F54
S11314A011243019305D3193DEF6CF010895462FB3
S11314B04770405D4193B3E00FD0C9F7F6CF462F94
S11314C04F70405D4A3318F0495D31FD40524193FD
S11314D002D0A9F7EACFB4E0A695979587957795BA
S11314E06795BA95C9F700976105710508959B0141
S11314F0AC010A2E06945795479537952795BA95CA
S1131500C9F7620F731F841F951FA01D08959927A3
S1131510882708952F923F924F925F926F927F9205
S11315208F929F92AF92BF92CF92DF92EF92FF92EF
S11315300F931F93CF93DF93CDB7DEB7CA1BDB0B9B
S11315400FB6F894DEBF0FBECDBF09942A88398840
S113155048885F846E847D848C849B84AA84B98447
S1131560C884DF80EE80FD800C811B81AA81B98153
S1131570CE0FD11D0FB6F894DEBF0FBECDBFED0167
S10915800895F894FFCF6A
S11315860A0D202E2E2E2E2E2E2E2E2E2E2E2E2EC4
S11315962E2E2E2E2E2E2E2E2E2E2E2E2E2E2E2E61
S11315A62E2E2E2E2E2E2E2E2E2E2E2E2E2E2E2E51
S11315B62E2E2E2E2E000A0D0909093C3C205461BC
S11315C66C6C657220646520B5436F6E74726F6CC3
S11315D661646F726573203E3E000A0D20436F6E90
S11315E674726F6C61646F72206465206A6F7973BC
S11315F67469636B000A0A0D20496E677265736528
S113160620656C206EFA6D65726F206465206469CE
S11316166D656E73696F6E6573206120636F6E749A
S1131626726F6C61723A002575000A0D204572725C
S11316366F723A204CED6D697465206465206469A7
S11316466D656E73696F6E6573206578636564692D
S1131656646F2E0001020408102040800000560129
S105166620005E
S9030000FC
